:020000040000FA
:2000000080FF0010310100000D0100001101000015010000190100001D010000E6F9FEEFE5
:20002000000000000000000000000000210100002501000000000000290100003518000001
:200040002D0100002D0100002D0100002D0100002D0100002D0100002D0100002D01000030
:200060002D0100002D0100002D0100002D0100002D0100002D0100002D0100002D01000010
:200080002D0100002D0100002D0100002D0100002D0100002D0100002D0100002D010000F0
:2000A0002D0100002D010000451800002D0100002D0100007D1800002D0100002D0100003A
:2000C0002D0100002D0100002D0100002D0100002D0100002D0100002D0100002D010000B0
:2000E0002D010000C8600000000000100C070000C860000000000020000000000C0700101C
:20010000B0B400000000002000000000FEE700BFFEE700BFFEE700BFFEE700BFFEE700BF27
:20012000FEE700BFFEE700BFFEE700BFFEE700BF70B5194C194EB44211D294E806000C34A3
:2001400054F8045C002DF6D0043A002351F8040B04339D4242F8040FF8D8B442EDD3104B03
:200160009C4214D204F1080607339B1B23F0070310331C44002516E90300034621B143F88B
:20018000045B1A1A9142FAD80836A642F3D102F05FFC04F083FBFEE7E4000000FC000000B9
:2001A0000C01000052B110B40439002350F8044B04339A4241F8044FF8D810BC704700BFC3
:2001C00041B1034610B4002443F8044B1A1A9142FAD810BC704700BFFFFFFFFFFFFFFFFF5F
:2001E000FFFFFFFFFFFFFFFFFFFFFFFFFFFFFFFFFFFFFFFFFFFFFFFFFFFFFFFFFFFFFFFF1F
:20020000FFFFFFFFFFFFFFFFFFFFFFFFFFFFFFFFFFFFFFFFFFFFFFFFFFFFFFFFFFFFFFFFFE
:20022000FFFFFFFFFFFFFFFFFFFFFFFFFFFFFFFFFFFFFFFFFFFFFFFFFFFFFFFFFFFFFFFFDE
:20024000FFFFFFFFFFFFFFFFFFFFFFFFFFFFFFFFFFFFFFFFFFFFFFFFFFFFFFFFFFFFFFFFBE
:20026000FFFFFFFFFFFFFFFFFFFFFFFFFFFFFFFFFFFFFFFFFFFFFFFFFFFFFFFFFFFFFFFF9E
:20028000FFFFFFFFFFFFFFFFFFFFFFFFFFFFFFFFFFFFFFFFFFFFFFFFFFFFFFFFFFFFFFFF7E
:2002A000FFFFFFFFFFFFFFFFFFFFFFFFFFFFFFFFFFFFFFFFFFFFFFFFFFFFFFFFFFFFFFFF5E
:2002C000FFFFFFFFFFFFFFFFFFFFFFFFFFFFFFFFFFFFFFFFFFFFFFFFFFFFFFFFFFFFFFFF3E
:2002E000FFFFFFFFFFFFFFFFFFFFFFFFFFFFFFFFFFFFFFFFFFFFFFFFFFFFFFFF21436587CA
:200300007600000040B938B50C4C2378DBB2012B04D02078C0B238BD01207047084A094D82
:200320001146094823702A6003F06AFE0028F0D0237803F0FE032370EBE700BF08070010E3
:2003400060B900100C07001000000C4008B10420704738B5324B1B78D80701D5032038BDA7
:200360000E2958D8DFE801F0443D36315757575757572A1E125708002A4B2B48196803F057
:20038000B3FD0028CCBF0020012038BD254B00201B68196911605969516099699160DB6914
:2003A000D36038BD1F4B00201B68196A1160596A5160996A9160DB6AD36038BD194B0020BB
:2003C0001B68D3F83032137038BD4FF480531360002038BD134B00201B68D3F83C3213808A
:2003E00038BD104B00201B68D3F84432136038BD0C4B1D6801F05CFA00F1320404E02946C4
:2004000003F066FDC30508D401F052FAA0420648F5D3012038BD042038BD002038BD00BFAA
:20042000080700100C07001000000C4008B104207047002BFBD00B480078C00701D5032019
:200440007047184600B5134683B00A46064900900968064803F06AFFB0FA80F0400903B0E6
:200460005DF804FB080700100C07001000000C4018B9034B1878C0B270470120704700BF2B
:200480000807001008B104207047002BFBD00B480078C00701D503207047184600B5134605
:2004A00083B00A46064900900968064804F020F8B0FA80F0400903B05DF804FB0807001086
:2004C0000C07001000000C400168F1B110B40C78202C09D93A2C14D00A4601E03A2B06D076
:2004E00012F8013F202BF9D8002010BC704701318A4206D1302C04D10132026010BC00206C
:2005000070474FF0FF3010BC70474FF0FF30704730B108B503680BB11A781AB9092008BDF6
:20052000092070478288D9889142F7D15878FFF79FFF10F00100F1D1F1E700BFF8B5C46A3C
:2005400000F1300705462246394640780123FFF799FFB0B92A6AAB69A21A9A4228710ED2B5
:20056000EE78012E01D80AE0AB691C44013E2246012339466878FFF785FF012EF4D10020F7
:20058000F8BD0120F8BD00BF38B5C36A8B4217D0037904460D4673B92A46012304F1300144
:2005A0006078FFF743FF002816BF4FF0FF3500200120E56238BDFFF7C1FF0028ECD038BDAF
:2005C000002038BDF8B5037905465BB92B78032B0DD0002268781146FFF7B8FE003018BFC4
:2005E0000120F8BDFFF7AAFF0028EFD0F8BD6B79012BEED105F130010B4605F50C7000220B
:2006000003F8012B83424FF00004F9D12B69E8681F121E0CEA6985F818321B0E4FEA202ED8
:2006200085F8197285F81A62070C060E85F81B3285F81C02AA235520013285F81E7285F82E
:200640001F625227612685F82E0285F82F324120722385F8330085F8160285F8143285F813
:20066000153285F81DE2EA6285F8307085F8317085F8326085F8176201236878FFF702FF30
:200680006C71A6E700224FF0FF3310B50271C3620446FFF779FF08B1032010BD4AF65522E8
:2006A00094F82F1294F82E3243EA0123934201D0022010BDD4F86630064A23F07F4393423F
:2006C000F7D0D4F8823023F07F43981A18BF012010BD00BF46415400F0B50746002385B0A5
:2006E00008463B601446FFF7EFFE061E16DB9B4B53F82650ADB13D602B7823B16878FFF7D0
:20070000B7FEC70710D5F0B2002368702B70FFF7F9FDC60711D5032005B0F0BD0B2005B035
:20072000F0BD0C2005B0F0BD8CB300F0040303F0FF00002BF0D00A20EEE70CB14107FAD499
:2007400000212846FFF79EFF012806D003281CD0002800F09E800D20DEE76E46694605F5DC
:20076000FB7305F2362013F8042C02B11A681033984241F8042BF6D104AF56F8044B022090
:200780003CB9BE42F9D10328E5D10120C4E72046C2E721462846FFF775FF0028F1D195F828
:2007A0003C2095F83B3043EA0223B3F5007FD2D195F8471095F8463095F8407053EA012344
:2007C00014BF1946696D7B1E012BA961EF70C2D895F83D30AB70002BBDD05A1E1A42BAD11D
:2007E00095F8412095F8426042EA062632072E81B1D195F8440095F8432095F83FE052EA71
:20080000002295F83E0008BF2A6D50EA0E20A2D001FB07F700EB161EBE4472459BD3CEEBBA
:200820000202B2FBF3F3002B95D040F6F572934272D94FF6F572934252D9023320440EEB96
:2008400004026B612862AA62EC61002E83D19B00EA6D03F2FF13B1EB532F6A62FFF47BAF61
:2008600095F8611095F860304FF0FF3243EA0123012B4FF080012A61EA6069710BD0032300
:20088000374A2B701388002001339BB21380EB8042E7044683E7611C2846FFF775FE0028A9
:2008A000EDD14AF6552295F82F1295F82E326E7143EA01239342E2D12A4B2A6B9A42DED1BB
:2008C00003F1FF5303F50053D5F8142220339A42D5D1D5F81822D5F81C322A61EB60CEE702
:2008E000023320440EEB04026B612862AA62EC61002E3FF430AF5B0003F2FF133844B1EBF7
:20090000532F6862FFF427AF4FF0FF3380222B61EB606A710223B3E7023320440EEB0402A6
:200920006B612862AA62EC61002E3FF414AF03F0010202F2FF1203EB430302EB53033844F6
:20094000B1EB532F6862FFF406AF4FF0FF3380222B61EB606A71012392E700BF14070010BB
:200960001007001052526141F8B503780546022B0C462CD0032B0ED0012B01D00120F8BD3D
:20098000016A04EB540601EB5621FFF7FDFD80B34FF0FF30F8BD016A01EBD411FFF7F4FDD7
:2009A0000028F5D1A30003F4FE7404F130032B449A78D97858782C44120494F8303042EAD5
:2009C000016242EA0020184320F07040F8BD016A01EB1421FFF7D8FD0028D9D1640004F413
:2009E000FF742B1993F8310093F8303043EA0020F8BD296AC6F30803771C2B4401EB5721DA
:200A0000284693F83060FFF7BFFD0028C0D1C7F308073D4495F83000E30746EA00204CBF96
:200A20000009C0F30B00F8BD70B50D468168C580012904D0044600684369994201D3022067
:200A400070BDC1B90278032A11D003899D42F6D2436AE160002BF2D005F00F02303000EB08
:200A6000421003EB151560612561002070BD426A002AEAD0114686783601B5420FD215E08F
:200A8000FFF772FF431C0146A5EB060517D00128D5D9206843698B42D1D9AE4206D801294D
:200AA000CDD943698B42EBD8022070BD023B8E1E9E4206D28278836A06FB0233C9E7012076
:200AC00070BDE160BBE700BF10B5C1880446FFF7ABFF00B110BD21692068FFF755FD00284F
:200AE000F8D10146636903F1200203F8011B9A42FBD16369E5221A70236801221A7110BDE2
:200B00002DE9F04790F800900446B9F1020F0D46174655D0B9F1030F2FD0B9F1010F03D04E
:200B200002263046BDE8F087016A05EB550801EB5821FFF729FD06460028F2D108F1010A87
:200B4000EB07C8F30808A04450D598F83030204603F00F0343EA071388F83030216A84F846
:200B6000049001EB5A21FFF70FFD002849D1CAF3080AA244C7F307174FE0016A01EBD5113D
:200B8000FFF702FD06460028CBD1AD0005F4FE7505F130032344DA782544120602F0704230
:200BA0001743380C4FEA272E390E012285F83070987083F801E0D97022713046BDE8F087B0
:200BC000016A01EB1521FFF7DFFC06460028A8D16D0005F4FF7561193A12012381F83070ED
:200BE00081F8312023713046BDE8F08788F83070216A84F8049001EB5A212046FFF7C4FCC7
:200C000008B106468DE7CAF3080AA2449AF83020C7F3032722F00F02174301238AF830701D
:200C200023717EE7F8B505460F46E9B9C668436956BB0126344610E0012E29D9022B11D908
:200C4000022421462846FFF78FFE40B3411C23D0012807D0A6421BD06B6901349C42EBD25C
:200C6000012CEED80120F8BD0129FBD943699942F8D2FFF779FE0128F4D9441C0CD06B69E9
:200C80008342F0D83E46D5E79E4228BF0126D1E70020F8BD0128E5D14FF0FF30F8BD6B6936
:200CA000A342DFD96FF0704221462846FFF728FF0028EFD15FB1012FD4D96B699F42D1D267
:200CC000394622462846FFF71BFF0028E2D12B69EC605A1C07D06A79013B42F001026A7178
:200CE0002B612046F8BD2046F8BD00BF2DE9F047C4880134A3B213B90420BDE8F0870369D8
:200D0000002BF9D014F00F070E46054608D00068303000EB47106861EC800020BDE8F087D3
:200D2000C16801330361006861B18378013B13EA1413EDD1012902D94369994206D30220D8
:200D4000BDE8F08703899C42D6D2E1E7FFF70CFE01288046F3D9B0F1FF3F1BD028684369DC
:200D600043450DD9A8F10206023B9E42C5F80C803BBF8378826A002606FB03262E61C7E790
:200D8000002EB9D0E968FFF74DFF804628B90720BDE8F0870120BDE8F0870128CFD0B0F179
:200DA000FF3FF7D02B681A79002A30D103F13002002103F50C7302F8011B9A42FBD12B68CE
:200DC000A8F102065A694FF00009023A96423BBF9A78996A002206FB02124FF0010ADA6287
:200DE00004E0DA6A09F101090132DA629A781846914513D283F804A02B681A79002AF0D0FE
:200E00001846FFF79BFB0028C4D12B68E9E71846FFF794FB0028BDD12B68C7E7DA6A5B69E6
:200E2000C9EB0202C2629FE72DE9F0470B780F462F2B05466DD05C2B6BD00024AC603B78A4
:200E40001F2B6CD9D5F81880DFF8CCA101E017F8013F2F2BFBD05C2BF9D0434608F10B0127
:200E6000202203F8012B8B42FBD100200446844607F1FF3E4FF008091EF8012F0134202AF2
:200E800022D92F2A40D05C2A3ED02E2A22D081451DD9110632D4222A19D05E4901E09A429E
:200EA00015D011F8013F002BF9D1A2F14103192B1BD84CF0020C08F800201EF8012F013020
:200EC000202A04F10104DCD82744042370BB0620BDE8F087B9F1080FF9D14FEA8C0C484631
:200EE0005FFA8CFC4FF00B09C6E7A2F16103192BE1D8203AD2B24CF0010CDCE7803A1AF867
:200F000002204CF0030CC6E7274400230028DED00CE000240137AC603B781F2B92D8214631
:200F20002846FFF781FD6C61BDE8F08798F800200021E52A04BF052288F80020B9F1080FBB
:200F400004BF4FEA8C0C5FFA8CFC0CF00302012A0CF00C0C08BF43F01003BCF1040F08BF48
:200F600043F0080388F80B302846FFF75DFD002836D129692868FFF707FB88BBD5F814C08D
:200F80009CF8002082B39CF80B9019F0080F21D1AE69644606F10B0E334601E014F8012FC0
:200FA00013F8011B914215D19E45F7D1F37A5A072AD419F0100F1BD02B689CF81B101A78E3
:200FC0009CF81A30032A43EA012314D0AB60B0463B783EE700212846FFF788FE0028C8D02D
:200FE000042801D0BDE8F087AB69DB7A5B070DD40520BDE8F0879CF815109CF8142042EA3E
:20100000012243EA0243E1E7BDE8F0870420BDE8F08700BFB8490000C849000070B50446D7
:201020000D4663699D4223D2012D0CD929462046FFF79AFC0646D8B1012804D0411C19D031
:2010400063699D4201D3022070BD294600222046FFF756FD78B9236935465A1CE1D00133EF
:2010600062792361636942F001029D426271DBD3002070BD012070BD10B50446042018E0EA
:201080002068FFF781FA0021D0B962691378B3B1E52B0AD02E2B08D0D37A03F03F030F2B1C
:2010A00023F0200201D0082A07D12046FFF71EFE30B921690029E3D110B9002010BD04207E
:2010C0000023236110BD00BF38B500210446FFF7ABFC40B1042808BF072038BD2046FFF78C
:2010E00005FE0028F6D121692068FFF74DFA0028F0D163691B78E52B02D00121002BEDD17A
:2011000021692068FFF740FAB0B90146636903F1200203F8011B9342FBD1A369626903F178
:201120000B05013A13F8011BAB4202F8011FF9D1236801221A7138BD38BD00BF10B584B091
:2011400004AB43F8041D0190184614460091FFF7BBF9021E0FDB0F4951F822300BB1002027
:201160001870019B8BB10020012C187041F8223004D004B010BD0B2004B010BD02466946B7
:2011800001A8FFF7A9FA04B010BD184641F82230EFE700BF140700102DE9F0418CB00191CE
:2011A00020B3002305461446036002F01E0205A801A9FFF791FA10B10CB0BDE8F08102AB07
:2011C000019905A80B93FFF72FFE04F01F070A9E80B9002E73D014F01C0F1CD0F37A13F010
:2011E000110F3DD1600712D50820E5E709200CB0BDE8F08114F01C0FDED00428DCD105A821
:20120000FFF762FF0A9E0028D6D147F00807390731D4059B0BE0F37ADA0623D4A00701D529
:20122000D9071DD42207059B01D547F02007D96A0022E9612E62AF71EA711978F07EB27EF7
:20124000032942EA00220FD02A61F169DA880020E9602B60AA80A860A8610CB0BDE8F081ED
:201260000720A9E70420A7E7707D317D41EA002142EA0142E8E7002246214120059B717471
:20128000B273F273F27232777277B277F27730741A78F47EB17E032A41EA042411D00022E2
:2012A0000121B276F276327572751971002CBCD08C4202D95A6994420AD302207CE70620E2
:2012C0007AE7717D327D42EA012244EA0244E6E721461846D3F82C80FFF7A0FE00287FF415
:2012E0006BAF0598013C4146C460FFF74DF900287FF462AF059B98E72DE9F04F1E4600236C
:2013000083B03360884617460446FFF701F928B9E07918B9A379D80703D4072003B0BDE846
:20132000F08FA268E568AD1ABD4228BF3D46002D4FD004F1240904F50977C2F30803002BD5
:2013400067D120688378013B03EA522313F0FF0372D061694269A1F1020A023A92457BD27A
:201360008178826A01FB0A22002A75D05FEA552B03EB020A2FD003EB0B028A4288BFC3EB73
:20138000010B40785B4652464146FFF74FF8002867D1A3795A0610D5A369CAEB030AD345E5
:2013A0000BD908EB4A2A0AF1FF3204F1240313F8011BBB4202F8011FF9D1A2684FEA4B2BD9
:2013C00033685A445B44B5EB0B05A260D8443360B3D10020A2E7A269924515D0A3795B0663
:2013E0000BD5407801234946FFF74CF8002838D1A379206823F04003A371407801235246B5
:201400004946FFF713F860BBA368C4F818A0C3F30803C3F5007BAB4528BFAB462344243328
:2014200003EB0B0008F1FF3213F8011B984202F8011FF9D1A268C3E742B92269012A0BD95B
:20144000511C0ED011462068626183E76169012902D942698A4207D80220E07103B0BDE845
:20146000F08F0120E07159E70193FFF77DFA019B0246E3E7F8B50446FFF74AF8D0B9A279B9
:2014800002F0200303F0FF00A3B153060DD522680123507804F12401A269FEF7F3FF00280C
:2014A00033D1A37923F04003A371E1692068FFF76BF800B1F8BD236A4127DA7A462642F02A
:2014C0002002DA72E26801251A77E26812125A77E2899A77E27BDA7722699875110C9A766F
:2014E000D8759874D87412120812DA76197558751F765E76A379226823F02003A37115717F
:201500002068BDE8F840FFF75DB80120D2E700BF10B50446FFF7AEFF00B110BD2046FEF737
:20152000F7FF0028F9D1206010BD00BF70B50E460446FEF7EDFF002844D1E079002841D143
:20154000E368B34204D2A27912F0020F08BF1E460022A368A260002E35D0206885786D02C6
:201560003BB1013B721EB3FBF5F1B2FBF5F28A4272D2216900297AD0616131BB0D46A36872
:20158000C3F30802002A7BD0A269954278D0A3795B0655D404F124062368314658782A46E5
:2015A0000123FEF743FF002853D1A368E268A561934206D9A279E36042F02003A37100208E
:2015C00070BD002070BD304670BDAE425BD92068A379761B9B0707D4012902D943698B429A
:2015E0002AD80220E07170BDFFF71CFB0146002848D04A1C2DD00129F3D92068436999424D
:20160000EFD2A368B5422B446161A360E0D33344C6F30805A360002DB2D0206802394269C3
:20162000023A9142DDD28278856A01FB02510029D7D001EB5625A3E7FFF796F90146D8E768
:20164000236804F12406587831460123FEF71AFF40B10120E07170BD6A421340A360F61AC5
:2016600061698AE7A37923F04003A37194E7FFF7D9FA01280146B4D0421CEAD020617BE776
:20168000E26895E72E46A368C1E700BF30B595B014A941F84C0D012206A8FFF71DF808B190
:2016A00015B030BD03AB019906A80C93FFF7BCFB0028F5D10B9B002B46D0DA7AD10702D55E
:2016C000072015B030BD0699DD7E0978987E032940EA052518D075B1D3061CD406A8FFF7A5
:2016E000F3F90028DCD1012D03D906984369AB422CD80220D4E706A8FFF7E6F90028CFD1BC
:201700000698FEF75FFFCBE7597D1B7D43EA012345EA0345DFE706AC0DF133030DA914F882
:20172000012B8C4203F8012FF9D1022120460F95FFF77AF90028B3D12046FFF79DFC00285B
:20174000BED00428CAD0ABE70620A9E72946FFF765FC0028D4D0A3E7034A116813685B1A1B
:201760008342FBD3704700BF2CB7001070B4074B074E084C084D4FF080620021C3F880215B
:201780003160286021701A6070BC704700E100E0180700101C07001020070010044A13681F
:2017A000002BFCD0034B1878B0FA80F040097047180700101C07001010B50A4B0A4C012245
:2017C0009A602046DA6002F0DFFF20464FF4E13103F048F80323E3602046BDE8104003F0FA
:2017E00037B800BF00C0024000C0004005494B69044A9B06FBD5114610604B699B06FCD58B
:20180000704700BF00C0004010B40138084B10F8011F1C4651B15A699206FCD521605A6906
:201820009206FCD510F8011F0029F4D110BC704700C00040024A136801331360704700BFC2
:201840002CB7001038B5084B08481B68084D197801F0D0FE0749084B01244FF0806228705C
:201860000C60C3F8802038BD20070010000008201C0700101807001000E100E010B5002441
:2018800082B00094234622462146064802F0C8FAA04204DA0449054B01220C701A6002B020
:2018A00010BD00BF00000C401C07001018070010014B1868704700BF2CB7001010B5ADF552
:2018C0000A7D01A801222349FFF766FC224B002838D1224A196801A8914216D0FFF718FEF8
:2018E0001F48204B10F8011B1C4651B15A699206FCD521605A699206FCD510F8011B002968
:20190000F4D101200DF50A7D10BD4FF0FF31164A1960D2F88031C2F88011D906DED5FFF7F5
:20192000F7FD0C48FFF7B2FE0E4B10481C4610F8011B51B15A699206FCD521605A69910679
:20194000FCD5F4E74FF0FF321A6000200DF50A7D10BD00BF484A000000D0001081EC9C4AF7
:201960006C4A000000C0004000C00F40544A000038B548F2040320494FF400401D6801F074
:201980005BFC1E4B1B6898421D4B10D01D491C4611F8010B50B15A699506FCD520605A6992
:2019A0009006FCD511F8010B0028F4D1FEE71649184611F8014B54B15A699206FCD5046032
:2019C0005A699206FCD511F8014B002CF4D10C4802F01CFF0D4B4FF0FF310722C3F8CC11AC
:2019E000C3F8CC41C3F8D021C3F8D04172B6BFF34F8FA847FEE700BFFCDF0100F0FF07008A
:201A000000C00040804A0000984A000000C00F4070B505460E461446CCB01946102202A836
:201A200002F038FF06A800F00DFC02A906A8802200F008FD02A81022002102F02DFF224663
:201A4000509B00218DE8600006A800F0CBFF06A800F0FEFB4CB070BD2DE9F04F844BADF5B7
:201A60001D7D1A78012A00F0F080022A40F0D7800DF14C08404601227E49FFF78DFB002894
:201A800040F0DE807C487D4B10F8011B1C4651B15A699606FCD521605A699506FCD510F8BC
:201AA000011B0029F4D172B6322308261D25DFF8F8B10E930EA80AA9714C0F961095A047B7
:201AC000DBF800306F4A0F96A2FB032334229B0910950E9211930AA90EA8A04762B6D8F8C7
:201AE0000C30C3F30B024FEA133906AB03931846002A00F0B4801022634909F1010902F09B
:201B0000C9FE5E4C002725464FF400465F4911F8012B52B163699806FCD52A6063699B0627
:201B2000FCD511F8012B002AF4D139034046FFF7FDFC002840F0848005AB4FF48052544941
:201B40004046FFF7D9FB00287AD1059BB3F5805F03D009F1FF33BB4272D1039B4FF48052A9
:201B600000934C494FF4E0434948FFF751FF4FF6FE739E4285BFA6F58033DB0B330B103371
:201B800072B632220F9310930E920AA90EA8DFF8F0A0D047DBF800303A4A3320A2FB032360
:201BA0003C4A9B094FF480510E9011910F96109212930AA90EA8D04762B601374F4506F55C
:201BC0008056A3D134482D4B10F8011B1C4651B15A699706FCD521605A699606FCD510F855
:201BE000011B0029F4D12D48244B10F8011B1C4651B15A699506FCD521605A699206FCD593
:201C000010F8011B0029F4D14046FFF781FC2448FFF73CFD01200DF51D7DBDE8F08F2148D4
:201C2000164B10F8011B1C4651B15A699206FCD521605A699706FCD510F8011B0029F4D1CB
:201C400000200DF51D7DBDE8F08F0DF14C0840461349FFF7A1FA00283FF414AFF0E71022B8
:201C6000094902F017FEB9F1000F7FF44AAFA9E709070010E04A0000EC4A000000C00040D6
:201C8000F11FFF1FD34D6210B04C0000104B00002C1700102CA70010344B0000144B000019
:201CA000D44A0000B44A0000B8BB00102DE9F0470124ADF5107D7B4D224607A87A492C70A6
:201CC000FFF76AFA002840F0B3800A9F774BB7F5F02F1AD976481C4610F8011B51B15A69ED
:201CE0009706FCD521605A699606FCD510F8011B0029F4D107A8FFF70BFC6B48FFF7C6FC9C
:201D000000200DF5107DBDE8F0876A481C4610F8011B51B15A699506FCD521605A699206B3
:201D2000FCD510F8011B0029F4D1C7F30B0302203F0B0DF10C09002B00F0838001F062FA0E
:201D4000484610225C49013702F0A4FD574D5B4CA8460026310307A8FFF7E8FB0028CFD170
:201D600002AB4FF48052564907A8FFF7C5FA0028C6D17B1E9E42029A2ED0B2F5805FBFD1B6
:201D80004FF4E0434F49CDF800904D48FFF740FE4C4B03F5805153F8042B8B42A260FAD1B3
:201DA0000136B742D6D107A8FFF7B2FB46483F4B10F8011B1C4651B15A699506FCD52160AA
:201DC0005A699206FCD510F8011B0029F4D101200DF5107DBDE8F087DFF8E8A04FF4E04334
:201DE00051463748CDF80090FFF712FE0298A0F11003990807D053460AEB810153F8042B32
:201E00008B42A260FAD18308043B5AF82330A2689A4231D12D4911F8012B002AC0D06B6998
:201E20009806FCD5C8F800206B699B06FCD5F2E72246274907A8FFF7AFF968B902232B702E
:201E400043E701F0DFF9484610221B4902F022FD002F7FF47BAFA6E7144B1E481C4610F8D2
:201E6000011B00293FF44CAF5A699506FCD521605A699206FCD5F2E7FF214FF480521148AC
:201E800002F00AFD094B14491C4611F8010B00283FF430AF5A699606FCD520605A699506D9
:201EA000FCD5F2E709070010D44A000000C00040B44B00009C4B0000B04C0000000009202F
:201EC0002C1700102CA70010D44B0000484B0000E04A0000844B0000584B000030B587B062
:201EE0000DF107024FF4F0215A4800F0D7FD044602A90A2202F0D4FC002C6EDB5648574B89
:201F000010F8011B1D4651B15A699206FCD529605A699106FCD510F8011B0029F4D102A89C
:201F20004E4B10F8011B1D4651B15A699206FCD529605A699106FCD510F8011B0029F4D18D
:201F40004748464B10F8011B1D4651B15A699206FCD529605A699206FCD510F8011B0029AA
:201F6000F4D19DF8073093B93E483C4B10F8011B1C4651B15A699506FCD521605A699106E5
:201F8000FCD510F8011B0029F4D107B030BD3648324B10F8011B1D4651B15A699206FCD50A
:201FA00029605A699206FCD510F8011B0029F4D1B4F5F02F44D0B4F5E04F47D0274B2B48AA
:201FC0001C4610F8011B0029DFD05A699506FCD521605A699206FCD5F3E7631C21D0A31CBE
:201FE00010D00334D1D11D4B21481C4610F8011B0029CAD05A699506FCD521605A69910604
:20200000FCD5F3E7154B1B481C4610F8011B0029BBD05A699506FCD521605A699206FCD53C
:20202000F3E70E4B14481C4610F8011B0029ACD05A699506FCD521605A699206FCD5F3E730
:2020400000F0AAFE0028A0D0FFF792FC02F08CFC9BE700BF00000080E84B000000C000405E
:20206000544C0000584B0000604C0000704C0000384C0000244C0000084C0000F0B5A1B077
:2020800000F0B4FF00F0ECFEFFF796FB0A226946762002F005FC594B594A1B68A2FB03234B
:2020A0009B09013BB3F1807F80F08B80554A564C00200721F825536084F823509060116079
:2020C000FFF70CFF5149524B11F8010B1C4650B15A699206FCD520605A699706FCD511F86A
:2020E000010B0028F4D16946494B11F8010B1C4650B15A699606FCD520605A699506FCD54D
:2021000011F8010B0028F4D14249414B11F8017B184657B15A699406FCD507605A699206CB
:20212000FCD511F8017B002FF4D1394C3A4D26463A4801F01FFA394628464FF4167202F0A7
:20214000ABFB374A374B3849C5F85022C5F85432C5F84C1200F0C2FE344801F049FC344BE7
:202160004FF000521A600A25012232493248FEF7E5FF032826D1314911F8012B52B1636994
:202180009B06FCD5326063699F06FCD511F8012B002AF4D1013D15F0FF05E5D128491C4B00
:2021A00011F8010B1C4650B15A699606FCD520605A699506FCD511F8010B0028F4D1FFF7D0
:2021C000D7FBFEE770B1124B1D4A184612F8011B0029F4D05C69A406FCD501605969890600
:2021E000FCD5F3E7FFF76AFB08B102F0CDFBFFF75DFD0028E3D0FFF72FFCE0E7B8BB0010D0
:20220000D34D621010E000E000ED00E0884C000000C00040344B000060B9001000000820EB
:202220009D170000591700006D17000000000C4000E100E0B04B000030B70010104B00009C
:20224000A04C00004FF48C72002102F025BB00BF30B100F58C720023037001309042FBD166
:20226000704700BFC02A2DE9F04131D0B2F5807F2BD0802A03D06FF01F00BDE8F0810A23D7
:202280000360864600F1080352094EF8043F002601EB8607BC7897F801C011F82650240465
:2022A000FF7844EA0C242C43013644EA076496424EF8044FECD302680C2A0CD00E2A71D0E5
:2022C0000A2A40D00020BDE8F0810E230360D8E70C230360D5E7C830584F4FF0010E584A54
:2022E00001E057F804EF59691C680E0EC1F3072512F806C0555DCEB245EA0C4512F806C027
:20230000C1F307466540965D85EA0C6484EA06245E689D6884EA0E0E8EEA060CDE688CEA12
:2023200005041D69664075406940C3F818E0C3F81CC01C625E62D9629D6218339842D0D182
:202340000020BDE8F0813D4F3D4AA830012101E057F8041FDE681C684FEA166EC6F307257B
:2023600012F80EC0555D5FFA86FE45EA0C4512F80EC0C6F3074E654012F80EE085EA0C6414
:2023800084EA0E245D6861409C684D406C40664019615D61DE619C6110338342D8D100200F
:2023A000BDE8F08100F1E80CDFF890E00124244A01E05EF8044FDD6919682E0EC5F30720DC
:2023C000975D105CEEB240EA0740975DC5F307464840965D80EA076181EA06215F684C4061
:2023E00098686740DE6878404640F1B212F8018019691C6288EA0104310E515CC6F3072839
:2024000084EA016112F80880C6F30744145D5F6281EA08215F6981EA04419C694F407C40C8
:2024200065409862DE6219635F63DD639C6320339C45BED10020BDE8F08100BFC05D00006B
:20244000C04C00002DE9F04F04460D461646CDB04FF48C72002106A802F01EFA04F108038B
:2024600032462946636006A8FFF7FCFE0190002866D1069B19460A0115460493079B216004
:2024800005929A5803EB050AA260DAF80430AAF11002E360DAF8083001F1FF3B2361DAF832
:2024A0000C300292BBF1000F04F11802039263613BDDDFF8A8902848DFF8A480DFF8A4C05C
:2024C000DFF8A4E0AAF1140A1434554604F1100655F8043FD9B21A0E475C815CC3F3072258
:2024E000825CC3F3074359F8277058F82110C35C5CF822204F405EF823307A40534044F81F
:20250000043FA642E4D1BBF1010BAAF1100A3446DBD1049B02991B01C3F11003059A19442F
:20252000039B103A1344029103930299039C0A460B6823604B6863608B68A360D368E360C9
:2025400006AB00221A704CA901338B42FAD101984DB0BDE8F08F00BFC04C0000C04D0000CB
:20256000C0590000C0510000C05500002DE9F04F90E818005B101E468BB04D680993636811
:20258000D1F800806B402068089203938A68E368C96888EA000E81EA030804F11003013EE4
:2025A000A06807932369002E059682EA0002049340F307824046D24BDDF81C900193D14B8F
:2025C000DFF848A3DFF848B30293039D5FFA8EF6290E019DD4B255F82660029D9DF80C7077
:2025E00055F82110019D86EA010855F82440C0F307215AF82160C3B255F8277055F82330EE
:202600000694029DD9F80440C2F3074188EA06065BF82180110E7C4055F82170010E84EAC7
:20262000070CC0F30740D9F80C705BF8204086EA08084FEA1E60CEF3072655F8200055F8AE
:2026400021107B40069D5AF82670D9F80860C2F307226E40039D5AF8222043407140C5F31E
:2026600007265AF826605A40049B4E4088EA030103918CEA070701999DF80CC0CEF3074EEF
:20268000C5F307457C405BF82E005BF8255051F82CC002994FEA146E51F82EE001996A400B
:2026A000E5B2704051F825500299030E51F8233003996B40C1F307285AF82810C2F3074518
:2026C0005BF82550049101990695C5B251F82550D9F810108CEA0E0E8EEA010E0299C2F3D9
:2026E00007274FEA126C51F82CC05AF82770D2B28EEA070E85EA0C07039DC0F307464FEA6B
:20270000156CC5F30741D9F81450C0F307205D40019B5BF8266053F82230029A5AF820006C
:2027200052F82C20C4F3072883EA020CD9F81C30049A8CEA0303C4F307445AF828805BF81C
:2027400024405BF8211058408EEA060ED9F81860069B55406B40039359F8203F7E400493A8
:20276000059B86EA0806013B86EA010280EA040005937FF42AAF8046099B079903F10063D9
:20278000013B01EB43130793019F03995FFA8EF657F826600C0E019F9DF80C10029D57F8DA
:2027A0002110019F5FFA88F055F8244057F820704FEA186055F82090130EC8F3072055F8E9
:2027C000233066405AF820400198059481EA03044FEA1E6355F82330C2F3074C5F40079B07
:2027E000D1B2C2F3072250F8210059685AF82230CEF30722069380EA09095AF8223004986B
:20280000079A4640D0685BF82C20049084EA0100079C0399A4680190C1F307205AF820008E
:20282000C1F3074C02940499C8F30745CEF3074887EA010E02995BF8284089EA0109059956
:202840005BF82C704E4001995BF8255089EA000981EA030B069B86EA020C89EA04028EEA94
:2028600003018BEA0503D5B227480695079D4FEA126E794010F80EE02D69CCF30727C75D93
:20288000C1F307460195865D069DCDF80CE04FEA136BC2F307495FFA83F8C3F3072EC3F339
:2028A000074310F809900497C2F30727019A0193079B05965FFA8CF4465D0D0E10F808801C
:2028C000045DCDF8089010F805905D69C1F3072A10F80BB010F80AA0544088EA05059A696A
:2028E00010F80EE0D3F81C80039BC9B2415C84EA0B64564085EA03654FEA1C62019B09E03F
:20290000C04D0000C0590000E85D0000C0510000C055000084EA0A2410F802A010F803B025
:20292000C75D049B81EA080181EA0A61CCF3074C10F80C00029A85EA032586EA096681EAE7
:202940000723059983EA0B4386EA0E2684EA024285EA014486EA0041180A0190180C0290D0
:20296000180E039008984FEA122B4FEA124A4FEA1269027003739DF804209DF808300F0AB8
:202980000E0C0D0E4FEA14284FEA144C4FEA146E0172047180F801B080F802A080F8039003
:2029A00080F8058080F806C080F807E047728672C572427383739DF80C10C1730BB0BDE8A5
:2029C000F08F044BDFF814A00193034BDFF810B00293D9E6C04D0000C0590000C05100009A
:2029E000C05500002DE9F043160785B00C9D0D9C2AD129BB16461AB380461F4603F1FF3976
:202A000010222946684601F045FF294622464046FFF7ACFD4946631E04F10F0E13F8010FF9
:202A200011F8012F734582EA00021A70F6D11022694638461544144401F02CFF103EDFD1BC
:202A4000002005B0BDE8F0836FF02100F9E700BF024B034A1A6000F0B9BA00BF08ED00E05F
:202A60000000000010B40B4A0B4C63690A49DB070BD4116813689942FCD0013880B20028D8
:202A8000F3D16FF0010010BC7047086810BCC0B2704700BF2CB7001000C000402DE9F04F23
:202AA0004FF00008C246ADF63C0D059006910792B549102208A801F0EDFE022000F0A2FBAB
:202AC0001923CDF80C8004934FF0010B43250224002D75D1C820FFF7C5FF0138172855D83F
:202AE000DFE800F04419540C545454545454545454545454545454545454544F9620FFF72B
:202B0000B1FF0028FADA0620FEF770FE03980DF63C0DBDE8F08F432D00F09A801AF10006EA
:202B200018BF0126022306F203454FF480670DF5866989F800304C464D446420FFF792FF38
:202B400004F8010FAC42F8D199F8023099F80110DB43DBB2994237D09620FFF783FF00286A
:202B6000FADA1520FEF742FE0025B0E7432D65D01AF1000618BF0126012306F1830580275D
:202B8000D5E76420FFF76EFF18286DD0013C9FD1432D01D115259AE79620FFF763FF002835
:202BA000FADA1820FEF722FE1820FEF71FFE1820FEF71CFE6FF001000DF63C0DBDE8F08F93
:202BC0002846FEF713FE85E78B4503D00BF1FF339942C1D13C46002E51D00DF23345284621
:202BE000FB1C994448454FF0000312D010F8016B082283EA062313F4004F4FEA43031CBF4C
:202C000083F4815383F00103013A9BB2F3D14845ECD10DF23442D25DE85D02EB002292B220
:202C2000934299D18B454CD0049B013B002B049336DD0620FEF7DAFD002548E701230DF54D
:202C400086691E4689F800309A468425802772E70DF586690223012689F80030B24640F2CF
:202C600004454FF4806766E79620FFF7FBFE0028FADA0620FEF7BAFD4FF0FF3047E732460D
:202C80000DF2324010F8013F01321E449742F6B2F8DC0DF23345EB5DB3427FF45DAFC1E7B6
:202CA0009620FFF7DFFE0028FADA1820FEF79EFD1820FEF79BFD1820FEF798FD6FF00200DF
:202CC00025E7069B039A9B1ABB4208D81C4633B90BF1010B19235FFA8BFB0493A9E7059BE0
:202CE000039822462946181801F0D4FD08AB0093224628460CA94FF4E043FEF789FEA2100B
:202D00003FD00CAB41F6FB3141F6FC35424401270026A146DDF81CE00DE0A84511D01B4878
:202D200080450AD91A48804520D008F10108424503F1040314D08845EFD81868154CA060F7
:202D4000F3E71448D3F800C0D0F808A0E2450CBF384630468EF800000E48C0F808C0E4E735
:202D60004C46039B904623440393B1E70948D0F808A0186882450CBF384630468EF800006B
:202D8000D3E74246EDE700BFB04C0000FBDF0100FCDF01000000092070B5294886B0FEF7C1
:202DA00033FD72B61D21082001F0E6FD1D21082001F0F2FD62B602AD28461022214901F079
:202DC00069FD214E4FF400442048FEF71DFDA4F5004131444FF480521D4801F05BFD1D49A8
:202DE00000954FF4E0434FF480521948FEF710FE4FF6FE739C4285BFA4F58031C90B210B3D
:202E0000103172B6084601F0B7FD20464FF48052104901F0C9FD62B604F58054B4F5002F0E
:202E2000D2D10D48FEF7F0FC4FF4F0220021064801F032FD0948FEF7E7FC012006B070BDA8
:202E4000EC4A0000B04C000000000080104B00002C1700102CA70010344B0000144B000051
:202E6000F8B50F2000F042F90F2000F03FF9124B1248134A9861134D4FF040609061124C59
:202E80004FF40070A8611149114E0020DFF848E0A061104F4FF4C000C861C3F800E0166001
:202EA0000F224FF470662F6026600860C3F8B820C3F8A020F8BD00BF008009204008630075
:202EC000208009204080092060800920808009200000FC3FF0FBFF0761086300084B02229F
:202EE000C3F88820C3F88C20C3F89420C3F89820C3F89C20C3F8AC20C3F8B020704700BF27
:202F000000C0024008B5074B0322C3F8B02101F0FDFB022000F05AF9BDE80840012000F0A3
:202F200049B900BF00C00F4010B50B2000F0DEF8202001F0D7FB114A312410462146C2F8E1
:202F400080410023C2F88441C2F88841C2F88C41C2F89041C2F89441C2F89841C2F89C41C0
:202F600003F180020133132B40F82210F8D1242203490248BDE8104000F02CBC00C002408B
:202F8000445F000010B50E4C4FF00733C4F8DC310B2001F0A7FB00220120114600F026FAC5
:202FA000D4F80031DB0754BF0648074800F00AFA034AD2F8A03143F00103C2F8A03110BD17
:202FC00000C00F40245F0000D45F000008B5FFF7ABFFFFF797FFFFF7D5FFFFF741FF00F053
:202FE00005F8BDE8084000F009B800BF08B500F0D3F8014B186008BDB8BB001010B50B4CD7
:203000000122C4F808211046032100F059F82246D2F8A83005495B05FAD540F20123C1F857
:2030200008311F20BDE8104000F060B800C00F400C4BD3F88400D3F80C3100F01F0013F04C
:20304000030300F1010008D0012B04D1064B1B6803FB00F0704700207047044B03FB00F012
:20306000704700BF00C00F40205F0000001BB70010B4400100F1804303F57C23D3F88020BF
:20308000AA2411435522C3F88010C3F88C40C3F88C2010BC704700BF10B4400100F1804363
:2030A00003F57C23D3F88020AA2422EA01015522C3F88010C3F88C40C3F88C2010BC7047FF
:2030C00070B4400100F1804303F57C230126AA25552441EA4212C3F88420C3F88060C3F89D
:2030E0008C50C3F88C4070BC704700BF04490122D1F8C43002FA00F00343C1F8C430704708
:2031000000C00F4005490122D1F8C43002FA00F023EA0003C1F8C430704700BF00C00F4044
:20312000054A0128D2F804310CBF43F4807323F48073C2F80431704700C00F40044AD2F84C
:20314000043103F480731843C2F80401704700BF00C00F400D4BD3F8040110F4807005D0C0
:20316000D3F8880010F480700AD17047D3F80C3113F0030307D0012B04D1054B1868704706
:20318000FFF756BF70470348704700BF00C00F40205F0000001BB70008B5FFF7DBFF044B70
:2031A000D3F8043103F01F03B0FBF3F008BD00BF00C00F40044AD2F8B43123F4407343EAE5
:2031C0000020C2F8B401704700C00F40044AD2F8B43123F01F031843C2F8B401704700BF28
:2031E00000C00F4008B5064BD3F8A80110F01F0201D1104608BDFFF7ADFFB0FBF2F008BD3C
:2032000000C00F4001280FD0022806D1094B36214FF0FF3219605A6070474FF6FF72054B8B
:20322000002119605A607047024B1521002219605A60704700000920084A10B44FF0FF3344
:2032400036241460536021B150F8043B01399360FAD1024B10BC9868704700BF00000920E4
:2032600030B50C784B6800EB4410C0F800328B68002B7BDB514C524DA4FB02E4A40C03FB26
:2032800004F3A5FB03439B09FF331B0A012B8CBF03F1FF330023C0F80432CB68002B6CDB03
:2032A000464C474DA4FB02E4A40C03FB04F3A5FB03439B09FF331B0AC0F808320C69002C4A
:2032C00062DB3E4B3E4DA3FB02E39B0C04FB03F4A5FB0434A409FF34240A012C8CBF04F12A
:2032E000FF340024C0F80C424C69002C53DB334B334DA3FB02E39B0C04FB03F4A5FB04346C
:20330000A409FF34240A012C8CBF04F1FF340024C0F810428B69002B44DB284C284DA4FB0B
:2033200002E4A40C03FB04F3A5FB03439B09FF331B0A022B8CBF023B0023C0F81432CB6917
:20334000002B36DB1D4C1E49A4FB0242920C03FB02F3A1FB03239B09FF331B0A012B8CBFB9
:2033600003F1FF330023C0F8183230BD5B421B12C0F80432CB68002B92DA5B421B12C0F811
:2033800008320C69002C9CDA64422412C0F80C424C69002CABDA64422412C0F810428B69BA
:2033A000002BBADA5B421B12C0F81432CB69002BC8DA5B421B12C0F8183230BD83DE1B430D
:2033C000D34D621010B50446FFF7E6FE054B2146BDE81040D3F800210132B0FBF2F20248CE
:2033E000FFF73EBF00C00F4000C00920002914BF4FF480730023003018BF0120002A0CBF70
:203400001A4643F00102024B9A601860704700BF00C0092005491038D1F8C42101238340CD
:203420001343C0B2C1F8C431704700BF00C00F4010B54469072C5BD8DFE804F049311B0465
:2034400004311B0440689B04C0F30B0040F00040090303F4E013034301F4E040029918435C
:20346000490501F46001D20302F460320843104310BD40689A04C0F30B0040F0084002F46E
:20348000E0125B05024303F460030803134300F4E040C903184301F46031084310BD406859
:2034A000029B02999B04C0F30B0003F4E01340F004404905184301F460011303084303F4C2
:2034C000E043D203184302F46032104310BD42688368C2F30B02980442F00C4242F4103206
:2034E00000F4E0105B05104303F46003184310BD002010BDF0B5C7690E684FF0010CFFB27E
:203500000CFA06FE17EA0E0F9DF814409DF818502DD15FFA8EF787600F6876010CFA07F7E8
:20352000FFB200EB060E0761CEF80831C0F830C0036BDB07FCD5CF688319C3F8007108693B
:20354000AD01C3F80401486905F4F865C00200F46050640040F4404004F03E0140EA050412
:203560000C43C3F81041C3F80C210120F0BD0020F0BD00BF38B504461D20FFF7B7FD00226E
:2035800010460D4BFF25C4F8F02103F10801C4F8D021C4F8B021C4F89021C4F87021C4F8DF
:2035A0005021C4F83021C4F81021A560256103F8010F8B42FBD138BD2307001010B400EB93
:2035C0004114D4F81021012322F00102C4F8102142688B40DBB2134218BF8360C2681342E3
:2035E00018BF0361024B00225A5410BC704700BF2407001010B4012404FA01F10368C9B237
:203600000B4009D042680A4009D1C3680B4003D0016110BC10467047184610BC7047816072
:20362000204610BC704700BF10B4029C9DF80C000A6048614C6007282CD8DFE800F02118FD
:203640000F0404180F04154A002052F82340019BCC6052F823300B6110BC70470F4A0198B6
:2036600052F823300861CB60022010BC70470B4ACB60019B012052F8233010BC0B617047AB
:20368000CB60019BA40802224C6003200B618A6010BC70474FF0FF30DEE700BFF45F0000A6
:2036A0002DE9F04388468DB09DF85060159900930296019115461C4606A91346424606466D
:2036C000FFF7B2FF071E3DDBF9073FD40F2D46D82E490123D1F8C421AB4022EA03032C48DF
:2036E0002C4AC1F8C431415D535D5FFA85F9BA0731D40F2C3CD8254D0122D5F8C401A24063
:2037000020EA0202224F2348C5F8C421005D3A5DE5B2009006A8FFF78BFE01950246CDF832
:20372000009006A900233046FFF7E4FE50B106EB4816D6F8103101200343C6F810310DB057
:20374000BDE8F08300200DB0BDE8F0830023BA0719469946CDD5002002460546D9E72846B7
:20376000FFF758FE0A4A0B4B8146515D5B5DBEE7204605930491FFF74DFE054A05460548C6
:20378000125D005D0499059BC3E700BF00C00F409460000074600000F0B40D4E0023012499
:2037A000C26904FA03F10A4012F0FF0FD9B24FF0010502D19A5D064F2AB10133082BEFD1A1
:2037C000F0BC00207047FD540846F0BC704700BF240700108AB130B401EB82020C6811F85E
:2037E000045BC4F3172405F007035B0103EBD5038A4240F82340F1D130BC704701F0030196
:2038000082B000230A4302608DF807309DF807300F2B09D89DF807300133DBB28DF80730B8
:203820009DF807300F2BF5D902B0704782B00123B2B142688B401343436000238DF8073045
:203840009DF807300F2B09D89DF807300133DBB28DF807309DF807300F2BF5D902B07047FB
:2038600042688B4022EA03034360E6E710B440F2FF7483B0002341F4806184638260C16092
:203880008DF807309DF807300F2B09D89DF807300133DBB28DF807309DF807300F2BF5D968
:2038A00003B010BC704700BF40F2FF71002382B04FF0FF3281638260C3608DF807309DF872
:2038C00007300F2B09D89DF807300133DBB28DF807309DF807300F2BF5D902B0704700BF51
:2038E000036903F03F030B7043694B6083698B60C369CB60036A0B61704700BF10B48B6821
:2039000083B043628A780B88934083628A78CC780B7912014979D2B223431343B1B943F006
:2039200001030022C3628DF807209DF807300F2B09D89DF807300133DBB28DF807309DF8CB
:2039400007300F2BF5D903B010BC704743F00903E7E700BF002A70B419BF002307260F267B
:2039600008235D1C03F1200251F8044BEBB29E4240F82240F5D270BC704700BF002A10B487
:2039800019BF002307240F24082303F12002013350F82220DBB29C4241F8042BF5D210BC69
:2039A000704700BF30B50C4683B00546FFF71AFC61004B1E1844B0FBF1F008B10138C0B2BA
:2039C0006B68002223F0FF03184368608DF807209DF807300F2B09D89DF807300133DBB29A
:2039E0008DF807309DF807300F2BF5D903B030BD10B5044682B01C20FFF778FB1C2000F085
:203A000071FE6368002223F4807363608DF803209DF803300F2B09D89DF803300133DBB269
:203A20008DF803309DF803300F2BF5D9002323608DF804309DF804300F2B09D89DF80430F2
:203A40000133DBB28DF804309DF804300F2BF5D900238DF805309DF805300F2B09D89DF8C4
:203A600005300133DBB28DF805309DF805300F2BF5D900236FF06042E3636262E3608DF8CE
:203A800006309DF806300F2B09D89DF806300133DBB28DF806309DF806300F2BF5D90023CD
:203AA000E3628DF807309DF807300F2B09D89DF807300133DBB28DF807309DF807300F2BCF
:203AC000F5D940F2FF7100230222A16322608DF800309DF800300F2B09D89DF8003001331B
:203AE000DBB28DF800309DF800300F2BF5D917492046FFF757FF6368002243F480736360CB
:203B00008DF802209DF802300F2B09D89DF802300133DBB28DF802309DF802300F2BF5D90E
:203B20000023032222608DF801309DF801300F2B09D89DF801300133DBB28DF801309DF852
:203B400001300F2BF5D902B010BD00BF801A06002DE9F0410E4601F0C0041F460546FFF758
:203B600085FE4FF480316A6B0CB9130609D450060DD440F20523134083B90139F3D16FF0C1
:203B800003042846FFF790FE2046BDE8F0812846FFF78AFE04BB0020BDE8F081D30734D5EC
:203BA00006F03F08B8F1010FF1D0B8F1290F22D0B8F10C0F29D12846FFF776FE002CEAD0FF
:203BC00028463946FFF78CFE3878B0EB080018BF4FF0FF30BDE8F0812846394606F03F08A0
:203BE000FFF77EFE08F1FF33012BD4D906F01F06092ED0D0E8E72846FFF756FE002CCAD010
:203C000028463946FFF76CFEF0E74FF0FF34B8E7F0B5174606464FF0FF3387B00D041360F5
:203C2000142401AB2A464D213046FFF791FF18B1013CF6D107B0F0BD029BDA0504D46FF0E2
:203C400005003B6007B0F0BD23F4FF5222F01F02002A0CBF00206FF00600F2E770B5064601
:203C600086B00D04142401E0013C13D001AB2A4677213046FFF76CFF0028F5D1029BDA05CF
:203C8000F2D523F4FF5020F01F0018B99B06EBD506B070BD6FF0060006B070BD2DE9F04124
:203CA0001E4C1F4E86B0002908BF26460546174698464FF400540AE001AB32462846FFF70C
:203CC00047FF10B9029B002B0BDB013C1ED000212846FFF7C3FF69210028EDD006B0BDE8EB
:203CE000F0813A685AB122F07F4119408A4212D1C3F3807388F8003006B0BDE8F081104651
:203D000023F07F433B6006B0BDE8F0816FF0060006B0BDE8F0816FF00100DFE70080FF0091
:203D20000080FF402DE9F04186B006AD002345F8183D2A4606460F46FFF76AFF48B9009BD3
:203D4000C3F34323032B07D0042B0CBF00206FF0040006B0BDE8F0814FEA0748142401E058
:203D6000013CF6D001AB424647213046FFF7F0FE0028F5D1029B6FF00500DA05F0D523F4A0
:203D8000FF5323F01F0343B92A4639463046FFF73FFF009BC3F34323D6E76FF0060006B078
:203DA000BDE8F08170B58EB286B031466A460546FFF72EFF80BB009BC3F34323042B24D0A8
:203DC000053B012B28D8142401E0013C1ED001AB00224C212846FFF7BBFE0028F5D1029B50
:203DE0006FF00500DA05F0D523F4FF5323F01F0373B96A4631462846FFF70AFF009BC3F30C
:203E00004323042B01D0072B06D1002006B070BD6FF0060006B070BD6FF0040006B070BDA2
:203E20002DE9F04140F23A24456B06462C40002C44D1EF050ED415F4806705D1234C2C408B
:203E40007CB90120BDE8F0814FF4806383630120BDE8F0814FF480738363F4632046BDE835
:203E6000F0811D461446D0F8348071B118F4804F0BD013689A0615BFC918C9183A4601226C
:203E8000FFF768FD23682033236095B118F4004F0FD0069B3046196811F03F0F14BF00220A
:203EA00001222944FFF76AFD069B069A1B6820331360064B0120B363BDE8F08140F23A275A
:203EC00087634FF0FF30BDE8F08100BF00C40F0000B583B0B1F8341201AAFFF799FE01983A
:203EE00003B05DF804FB00BF2DE9F0430E468DB0B1F8341290460546FFF714FF20B1002711
:203F000038460DB0BDE8F08340F22A7307460121EB633948FFF740FC0CAC40224FF00609A7
:203F200004F8240D014643460192CDF8009001223148FFF7B5FB2046D6F84C322F4C98474E
:203F40000123022204A9284606948DF812908DF81470ADF810308DF815308DF81320202489
:203F6000FFF7CCFCB6F8348203E0631E13F0FF041CD041462846FFF771FE0028F5D1024639
:203F800007AB4D212846FFF7E3FD0028EDD1089BDA05EAD523F4FF5323F01F0333B9D6F83E
:203FA00050329847002814BF002740279DF80C101148FFF703FB07AAB6F834122846FFF710
:203FC00027FE079BC3F34323052B0ED007AAB6F834122846FFF71CFE079BC3F34323042BE0
:203FE000F4D138460DB0BDE8F083B6F834122846FFF7D8FEEAE700BF00000820404B4C00EC
:204000002DE9F0410446C24B0025C1F8383288B0C1F830520E46BF49FFF7C4FC2A4620465F
:204020000321FFF7EBFB2B462A4620464FF48071FFF78EFD074618B1384608B0BDE8F08122
:20404000D6F8543264209847142503AB4FF4D57248212046FFF77CFD002859D0013DF4D1A6
:20406000831C53D0DFF8B0E229460DF1070302AA2046CDF808E0FFF711FE002843D1D6F8D0
:20408000303243F00103C6F83032142503AB0022C2212046FFF75CFD002879D0013DF5D151
:2040A000D6F83032D90753D50023A6F83432142503AB002243212046FFF74AFD40B9049BF9
:2040C000C3F30C02510AD20502D5032900F01281013DEDD1B6F834824FEA0848142503AB94
:2040E0004246C9212046FFF733FD002849D0013DF5D13369002B52D11F1C18BF01273846DB
:2041000008B0BDE8F081851C40F0D180074693E7049BC3F30803B3F5D57F40F0E880D6F826
:2041200030327D4D43F00103C6F8303203AA02AB012120460395FFF7B1FD9DF80830002BE6
:20414000A3D0D6F8303243F08043C6F830329CE70123A6F83432142501E0013D0BD003AB1A
:204160004FF4803243212046FFF7F2FC0028F4D1049BDB05F1D5002203212046FFF73EFB8F
:20418000A8E704A80FC8F062B16272623362B0E704A80FC8F061B1617261336180E75F4B4A
:2041A000B56A9E46D6F83002C5F303410122034002FA01F17345C6F83C1200F0A080736AFB
:2041C000B1F5007F4FEA9370C3F3C23340EA850003F10203C0F30B0002FA03F300FB03334A
:2041E000C4BF490A4B43C6F844325B02C6F84032B6F834122046FFF795FD00287FF41CAF52
:2042000003AAB6F834122046FFF702FD039BC3F34323042B7FF410AF3D492046FFF7C2FBE8
:20422000D6F8303213F001027AD001220B212046FFF7FCFA2025B6F8348204E06B1E13F044
:20424000FF053FF4F9AE41462046FFF707FD0028F4D103AB022246212046FFF779FC00287A
:20426000ECD1049BD805E9D523F4FF5323F01F03002B7FF4E1AE202703E013F0FF073FF416
:20428000DBAE03AB4FF4007250212046FFF760FC7B1E0028F1D1049AD105EED522F4FF52E8
:2042A00022F01F02002A7FF431AF336924E7402203212046FFF7A2FAD6F854326420984772
:2042C0004FF4007501E0013D1FD0DFF84C8003AB424641212046FFF73BFC0028F3D1049BBF
:2042E000002BF0DA42461A4042453FF4CEAE6FF00107A1E64FEA1348A6F83482ECE6F38C8A
:2043000013449B02C6F844326FE76FF0060793E6002D3101801A06000080FF00010000407B
:204320000B212046FFF782FAA5E700BF2DE9F04FB3F1000B91B008DB14461A9AD1F84432B9
:2043400089460BEB0201994203D9002011B0BDE8F08FB9F834120546FFF7E4FC0028F4D1D4
:20436000614B09210A9301238DF825301A9B0222002B8DF824008DF822108DF823207CDD47
:204380001A9BCDF810B09B4603940BAE40F22A73DA46BBF17F0FEB634FF001015348A8BFF8
:2043A0004FF07F0AFFF7F8F94FEA4A231A460446059306230146019200930122039B4B487C
:2043C0008DF81C40FFF76CF9D9F84C3207A8984708A92846ADF820A0FFF790FAD9F830328D
:2043E000BAF1010F049A0CBF4FF051084FF05208590058BF134617464FF0200458BF5F0267
:2044000002E014F0FF043DD033463A4641462846FFF79EFB013C0028F3D10C9BDA05F0D5B5
:2044200023F4FF5323F01F0363BBD9F85032984740BB9DF81C102D48FFF7C0F8BAF1010FF4
:2044400039D0B9F834122846FFF7ACFC3246B9F834122846FFF7DCFB0B9BC3F34323042BB5
:20446000F4D1039B059ACAEB0B0B13440393049BBBF1000F5344049388DC1A9B58027FF414
:2044800065AF0BAE9DF81C101848FFF797F81A9B012B1CDDB9F834122846FFF783FC32467D
:2044A000B9F834122846FFF7B3FB0B9BC3F34323042BF4D149E73246B9F834122846FFF73A
:2044C000A7FB0B9BC3F34323052BBFD1B9E73246B9F834122846FFF79BFB0B9BC3F34323ED
:2044E000052BDCD1D6E700BF404B4C00000008202DE9F04F002B91B0039308DBD1F84432EB
:204500000F4614461A99039A5118994205D900230593059811B0BDE8F08FB7F834120546FD
:20452000FFF700FC05900028F1D16C4B09220A9301238DF825301A9B8DF82300002B8DF880
:2045400024008DF8222040F38780DDF868B004940BAEBBF17F0F00F39F80BBF1010F18BF19
:20456000DA46DDF80C80D7F8303206BF4FF0010A4FF058094FF05909590058BF039B4FF0EC
:20458000200458BF4FEA432802E014F0FF04C0D03346424649462846FFF7DAFA013C002896
:2045A000F3D10C9BDA05F0D523F4FF5323F01F03002BAED13246B7F834122846FFF728FBB0
:2045C0000B9BC3F34323062BF4D140F21A730121EB634348FFF7E0F810AC05234FEA4A280C
:2045E000014604F8240D049A8DE808013C480123FFF756F8D7F84C322046984710A921F8DB
:2046000020AD2846FFF77AF9D7F85032984750BB9DF81C103248FEF7D1FFBAF1010F44D0EC
:20462000B7F834122846FFF7BDFB3246B7F834122846FFF7EDFA0B9BC3F34323042BF4D1FB
:20464000049BCAEB0B0B43440493039BBBF1000F534403933FF77DAF1A9B5B0218BF059369
:204660007FF457AF0BAE9DF81C101D48FEF7A6FF1A9B012B25DDB7F834122846FFF792FB7F
:204680003246B7F834122846FFF7C2FA0B9BC3F34323042BF4D13AE7D7F83032DDF80C8024
:2046A0004FF07F0A4FF0590966E73246B7F834122846FFF7ADFA0B9BC3F34323062BB4D154
:2046C000AEE73246B7F834122846FFF7A1FA0B9BC3F34323062BD3D1CDE700BF002D310170
:2046E0000000082043099B00012203F1804300F01F0003F57C2302FA00F0C3F8CC01D3F8EC
:20470000CC2122EA0000C3F8CC01704738B51D4BD3F8A021500605D4D3F8A02142F0200271
:20472000C3F8A021174AD2F8A031164C5906FAD50020FEF7F5FCD4F88830DA051CD4114CBB
:204740000022012510460921C4F80C51FEF7B8FC29460020FEF78CFC2846FEF7EFFC22460D
:20476000D2F88830074C5B05FAD50120FEF7D8FC0223C4F8A83138BD01210020FEF78CFCDD
:20478000DDE700BF00C00F401F4B10B5984204461DD003F50823984231D003F580439842B4
:2047A0002FD003F50043984221D00320FEF79EFC07220023A26023636360E3602362E3649C
:2047C0006365236503221023E260A36210BD0420FEF78CFC00230722A26023636360E360A2
:2047E0002362E364636523652361A369EAE70820FEF77CFC07220023A260E365DCE7182016
:20480000D4E71920D2E700BF000001400E4B984210D00E4B00229842026310D003F508231B
:2048200098420FD003F58043984214BF03201920FEF768BC0023C3650820FEF763BC042037
:20484000FEF760BC1820F3E700400A4000000140034B98420BBF01238023C365036370476C
:2048600000400A4038B50C460546FEF7BBFC2101B0FBF1F1EB68CCB243F08003C1F3072265
:20488000EB602C606A60EB68B0FBF1F023F08003EB6038BD00F032B800F04AB8FDF7EEBB59
:2048A0000A2AF0B5034601D100281FDB00200D46114F1E46B3FBF2F32C4603FB1266BE5D15
:2048C00004F8016B0BB12546F3E710B12D23AC1C6B70002323700B46621E9A4209D91078EE
:2048E0001C7802F8014903F8010BF6E743420120DDE70846F0BD00BFB460000040EA010396
:20490000DB0703460CD40346043A22BF51F804CB43F804CBB2F10402F7D2043208BF7047DC
:20492000013A24BF11F801CB03F801CBF8D87047034613F0030F0ED101F0FF0141EA0121BB
:2049400041EA0141043A24BF43F8041BB2F10402F9D202F10402013A24BF03F8011BFAE7EC
:204960007047FFFFFFFFFFFF01B40248844601BC604700BF9D04001001B40248844601BC63
:20498000604700BF0100001001B40248844601BC604700BF9500001001B40248844601BC89
:2049A000604700BF5D00001001B40248844601BC604700BF25000010222A2B2C3A3B3C3D72
:2049C0003E3F5B5D7C7F00FF808182828485868788898A8B8C8D8E8F8091929394959697A5
:2049E00098998A9B8C8D8E8FA0A2A2A3A4A5A6A7A8A9AAABACADAEAFB0B1B2B2A5B5B6B726
:204A0000A8B9AABBA3BDBDAFC0C1C2C3C4C5C6C7C8C9CACBCCCDCECFD0D1D2D3D4D5D6D7F0
:204A2000D8D9DADBDCDDDEDFC0C1C2C3C4C5C6C7C8C9CACBCCCDCECFD0D1D2D3D4D5D6D786
:204A4000D8D9DADBDCDDDEDF7570645F6C64722E62696E0073656C66757064617465206676
:204A6000696E616C697A65640D0A000073656C6675706461746520666F756E640D0A00004F
:204A80006170706C69636174696F6E20636F727275707465640D0A007374617274696E6707
:204AA000206170706C69636174696F6E2E2E2E0D0A000000626164206170706C696361740C
:204AC000696F6E2075706461746520747970650D0A0000007570645F6170702E62696E00A4
:204AE0005F70645F6170702E62696E007374617274696E67206170706C69636174696F6E5C
:204B0000207570646174652E2E2E0D0A000000002A00000066696E616C697A696E6720617B
:204B200070706C69636174696F6E207570646174652E2E2E0D0A00006261642066696C6517
:204B40002073697A650D0A00636865636B73756D204F4B0D0A000000626164206368656365
:204B60006B73756D0D0A00007374617274696E672073656C667570646174652E2E2E0D0A04
:204B80000000000061707020757064617465206E6F7420666F756E640D0A000063686563DA
:204BA0006B696E67207570646174652E2E2E0D0A000000006170702075706461746520669E
:204BC0006F756E642062757420746F6F206269670D0A00006170702075706461746520666F
:204BE0006F756E640D0A0000586D6F64656D207375636365737366756C6C7920726563657A
:204C00006976656420000000586D6F64656D2063616E63656C65642062792072656D6F74D1
:204C200065000000586D6F64656D2073796E63206572726F72000000586D6F64656D207480
:204C40006F6F206D616E79207265747279206572726F72002062797465730D0A00000000A3
:204C6000636865636B73756D206F6B0D0A000000756E6B6E6F776E2066696C652073697A8A
:204C8000652E2E2E0D0A00000D0A73656375726520626F6F746C6F6164657220562E000081
:204CA0005344206D6F756E74206661696C0D0A008760ACD42D90F644472466B49B2C178CEA
:204CC000637C777BF26B6FC53001672BFED7AB76CA82C97DFA5947F0ADD4A2AF9CA472C059
:204CE000B7FD9326363FF7CC34A5E5F171D8311504C723C31896059A071280E2EB27B2751F
:204D000009832C1A1B6E5AA0523BD6B329E32F8453D100ED20FCB15B6ACBBE394A4C58CF47
:204D2000D0EFAAFB434D338545F9027F503C9FA851A3408F929D38F5BCB6DA2110FFF3D2D5
:204D4000CD0C13EC5F974417C4A77E3D645D197360814FDC222A908846EEB814DE5E0BDB25
:204D6000E0323A0A4906245CC2D3AC629195E479E7C8376D8DD54EA96C56F4EA657AAE0807
:204D8000BA78252E1CA6B4C6E8DD741F4BBD8B8A703EB5664803F60E613557B986C11D9E1D
:204DA000E1F8981169D98E949B1E87E9CE5528DF8CA1890DBFE6426841992D0FB054BB16BD
:204DC00051F4A7507E4165531A17A4C33A275E963BAB6BCB1F9D45F1ACFA58AB4BE30393B8
:204DE0002030FA55AD766DF688CC7691F5024C254FE5D7FCC52ACBD726354480B562A38FCB
:204E0000DEB15A4925BA1B6745EA0E985DFEC0E1C32F7502814CF0128D4697A36BD3F9C6EC
:204E2000038F5FE715929C95BF6D7AEB955259DAD4BE832D587421D349E069298EC9C844F7
:204E400075C2896AF48E797899583E6B27B971DDBEE14FB6F088AD17C920AC667DCE3AB4D9
:204E600063DF4A18E51A31829751336062537F45B16477E0BB6BAE84FE81A01CF9082B9429
:204E8000704868588F45FD1994DE6C87527BF8B7AB73D323724B02E2E31F8F576655AB2AA2
:204EA000B2EB28072FB5C20386C57B9AD33708A5302887F223BFA5B202036ABAED16825C52
:204EC0008ACF1C2BA779B492F307F2F04E69E2A165DAF4CD0605BED5D134621FC4A6FE8AA0
:204EE000342E539DA2F355A0058AE132A4F6EB750B83EC394060EFAA5E719F06BD6E10514E
:204F00003E218AF996DD063DDD3E05AE4DE6BD4691548DB571C45D050406D46F605015FF26
:204F20001998FB24D6BDE997894043CC67D99E77B0E842BD07898B88E7195B3879C8EEDB8A
:204F4000A17C0A477C420FE9F8841EC90000000009808683322BED481E1170AC6C5A724ED5
:204F6000FD0EFFFB0F8538563DAED51E362D39270A0FD964685CA6219B5B54D124362E3AAB
:204F80000C0A67B19357E70FB4EE96D21B9B919E80C0C54F61DC20A25A774B691C121A16DE
:204FA000E293BA0AC0A02AE53C22E043121B171D0E090D0BF28BC7AD2DB6A8B9141EA9C860
:204FC00057F11985AF75074CEE99DDBBA37F60FDF701269F5C72F5BC44663BC55BFB7E34E8
:204FE0008B432976CB23C6DCB6EDFC68B8E4F163D731DCCA426385101397224084C611204E
:20500000854A247DD2BB3DF8AEF93211C729A16D1D9E2F4BDCB230F30D8652EC77C1E3D0D4
:205020002BB3166CA970B999119448FA47E96422A8FC8CC4A0F03F1A567D2CD8223390EF80
:2050400087494EC7D938D1C18CCAA2FE98D40B36A6F581CFA57ADE28DAB78E263FADBFA481
:205060002C3A9DE45078920D6A5FCC9B547E4662F68D13C290D8B8E82E39F75E82C3AFF533
:205080009F5D80BE69D0937C6FD52DA9CF2512B3C8AC993B10187DA7E89C636EDB3BBB7B86
:2050A000CD2678096E5918F4EC9AB701834F9AA8E6956E65AAFFE67E21BCCF08EF15E8E676
:2050C000BAE79BD94A6F36CEEA9F09D429B07CD631A4B2AF2A3F2331C6A5943035A266C04E
:2050E000744EBC37FC82CAA6E090D0B033A7D815F104984A41ECDAF77FCD500E1791F62F0A
:20510000764DD68D43EFB04DCCAA4D54E49604DF9ED1B5E34C6A881BC12C1FB84665517F27
:205120009D5EEA04018C355DFA877473FB0B412EB3671D5A92DBD252E91056336DD6471349
:205140009AD7618C37A10C7A59F8148EEB133C89CEA927EEB761C935E11CE5ED7A47B13CBE
:205160009CD2DF5955F2733F1814CE7973C737BF53F7CDEA5FFDAA5BDF3D6F147844DB86CF
:20518000CAAFF381B968C43E3824342CC2A3405F161DC372BCE2250C283C498BFF0D9541EE
:2051A00039A80171080CB3DED8B4E49C6456C1907BCB8461D532B670486C5C74D0B85742E3
:2051C0005051F4A7537E4165C31A17A4963A275ECB3BAB6BF11F9D45ABACFA58934BE303B4
:2051E000552030FAF6AD766D9188CC7625F5024CFC4FE5D7D7C52ACB802635448FB562A3C7
:2052000049DEB15A6725BA1B9845EA0EE15DFEC002C32F7512814CF0A38D4697C66BD3F9E8
:20522000E7038F5F9515929CEBBF6D7ADA9552592DD4BE83D35874212949E069448EC9C8F3
:205240006A75C28978F48E796B99583EDD27B971B6BEE14F17F088AD66C920ACB47DCE3AD5
:205260001863DF4A82E51A31609751334562537FE0B1647784BB6BAE1CFE81A094F9082B25
:2052800058704868198F45FD8794DE6CB7527BF823AB73D3E2724B0257E31F8F2A6655AB9E
:2052A00007B2EB28032FB5C29A86C57BA5D33708F2302887B223BFA5BA02036A5CED16824E
:2052C0002B8ACF1C92A779B4F0F307F2A14E69E2CD65DAF4D50605BE1FD134628AC4A6FE9C
:2052E0009D342E53A0A2F35532058AE175A4F6EB390B83ECAA4060EF065E719F51BD6E104A
:20530000F93E218A3D96DD06AEDD3E05464DE6BDB591548D0571C45D6F0406D4FF60501522
:20532000241998FB97D6BDE9CC8940437767D99EBDB0E8428807898B38E7195BDB79C8EE86
:2053400047A17C0AE97C420FC9F8841E000000008309808648322BEDAC1E11704E6C5A72D1
:20536000FBFD0EFF560F85381E3DAED527362D39640A0FD921685CA6D19B5B543A24362EA7
:20538000B10C0A670F9357E7D2B4EE969E1B9B914F80C0C5A261DC20695A774B161C121ADA
:2053A0000AE293BAE5C0A02A433C22E01D121B170B0E090DADF28BC7B92DB6A8C8141EA95C
:2053C0008557F1194CAF7507BBEE99DDFDA37F609FF70126BC5C72F5C544663B345BFB7EE4
:2053E000768B4329DCCB23C668B6EDFC63B8E4F1CAD731DC10426385401397222084C6114A
:205400007D854A24F8D2BB3D11AEF9326DC729A14B1D9E2FF3DCB230EC0D8652D077C1E3D0
:205420006C2BB31699A970B9FA1194482247E964C4A8FC8C1AA0F03FD8567D2CEF2233907C
:20544000C787494EC1D938D1FE8CCAA23698D40BCFA6F58128A57ADE26DAB78EA43FADBF7D
:20546000E42C3A9D0D5078929B6A5FCC62547E46C2F68D13E890D8B85E2E39F7F582C3AF2F
:20548000BE9F5D807C69D093A96FD52DB3CF25123BC8AC99A710187D6EE89C637BDB3BBB82
:2054A00009CD2678F46E591801EC9AB7A8834F9A65E6956E7EAAFFE60821BCCFE6EF15E872
:2054C000D9BAE79BCE4A6F36D4EA9F09D629B07CAF31A4B2312A3F2330C6A594C035A2664A
:2054E00037744EBCA6FC82CAB0E090D01533A7D84AF10498F741ECDA0E7FCD502F1791F606
:205500008D764DD64D43EFB054CCAA4DDFE49604E39ED1B51B4C6A88B8C12C1F7F46655123
:20552000049D5EEA5D018C3573FA87742EFB0B415AB3671D5292DBD233E91056136DD64745
:205540008C9AD7617A37A10C8E59F81489EB133CEECEA92735B761C9EDE11CE53C7A47B1BA
:20556000599CD2DF3F55F273791814CEBF73C737EA53F7CD5B5FFDAA14DF3D6F867844DBCB
:2055800081CAAFF33EB968C42C3824345FC2A34072161DC30CBCE2258B283C4941FF0D95EA
:2055A0007139A801DE080CB39CD8B4E4906456C1617BCB8470D532B674486C5C42D0B857DF
:2055C000A75051F465537E41A4C31A175E963A276BCB3BAB45F11F9D58ABACFA03934BE3B0
:2055E000FA5520306DF6AD76769188CC4C25F502D7FC4FE5CBD7C52A44802635A38FB562C3
:205600005A49DEB11B6725BA0E9845EAC0E15DFE7502C32FF012814C97A38D46F9C66BD3E4
:205620005FE7038F9C9515927AEBBF6D59DA9552832DD4BE21D35874692949E0C8448EC9EF
:20564000896A75C27978F48E3E6B995871DD27B94FB6BEE1AD17F088AC66C9203AB47DCED1
:205660004A1863DF3182E51A336097517F45625377E0B164AE84BB6BA01CFE812B94F90821
:2056800068587048FD198F456C8794DEF8B7527BD323AB7302E2724B8F57E31FAB2A66559A
:2056A0002807B2EBC2032FB57B9A86C508A5D33787F23028A5B223BF6ABA0203825CED164A
:2056C0001C2B8ACFB492A779F2F0F307E2A14E69F4CD65DABED50605621FD134FE8AC4A698
:2056E000539D342E55A0A2F3E132058AEB75A4F6EC390B83EFAA40609F065E711051BD6E46
:205700008AF93E21063D96DD05AEDD3EBD464DE68DB591545D0571C4D46F040615FF60501E
:20572000FB241998E997D6BD43CC89409E7767D942BDB0E88B8807895B38E719EEDB79C882
:205740000A47A17C0FE97C421EC9F8840000000086830980ED48322B70AC1E11724E6C5ACD
:20576000FFFBFD0E38560F85D51E3DAE3927362DD9640A0FA621685C54D19B5B2E3A2436A3
:2057800067B10C0AE70F935796D2B4EE919E1B9BC54F80C020A261DC4B695A771A161C12D6
:2057A000BA0AE2932AE5C0A0E0433C22171D121B0D0B0E09C7ADF28BA8B92DB6A9C8141E58
:2057C000198557F1074CAF75DDBBEE9960FDA37F269FF701F5BC5C723BC544667E345BFBE0
:2057E00029768B43C6DCCB23FC68B6EDF163B8E4DCCAD7318510426322401397112084C646
:20580000247D854A3DF8D2BB3211AEF9A16DC7292F4B1D9E30F3DCB252EC0D86E3D077C1CC
:20582000166C2BB3B999A97048FA1194642247E98CC4A8FC3F1AA0F02CD8567D90EF223378
:205840004EC78749D1C1D938A2FE8CCA0B3698D481CFA6F5DE28A57A8E26DAB7BFA43FAD79
:205860009DE42C3A920D5078CC9B6A5F4662547E13C2F68DB8E890D8F75E2E39AFF582C32B
:2058800080BE9F5D937C69D02DA96FD512B3CF25993BC8AC7DA71018636EE89CBB7BDB3B7E
:2058A0007809CD2618F46E59B701EC9A9AA8834F6E65E695E67EAAFFCF0821BCE8E6EF156E
:2058C0009BD9BAE736CE4A6F09D4EA9F7CD629B0B2AF31A423312A3F9430C6A566C035A246
:2058E000BC37744ECAA6FC82D0B0E090D81533A7984AF104DAF741EC500E7FCDF62F179102
:20590000D68D764DB04D43EF4D54CCAA04DFE496B5E39ED1881B4C6A1FB8C12C517F46651F
:20592000EA049D5E355D018C7473FA87412EFB0B1D5AB367D25292DB5633E91047136DD641
:20594000618C9AD70C7A37A1148E59F83C89EB1327EECEA9C935B761E5EDE11CB13C7A47B6
:20596000DF599CD2733F55F2CE79181437BF73C7CDEA53F7AA5B5FFD6F14DF3DDB867844C7
:20598000F381CAAFC43EB968342C3824405FC2A3C372161D250CBCE2498B283C9541FF0DE6
:2059A000017139A8B3DE080CE49CD8B4C190645684617BCBB670D5325C74486C5742D0B8DB
:2059C000F4A750514165537E17A4C31A275E963AAB6BCB3B9D45F11FFA58ABACE303934BAC
:2059E00030FA5520766DF6ADCC769188024C25F5E5D7FC4F2ACBD7C53544802662A38FB5BF
:205A0000B15A49DEBA1B6725EA0E9845FEC0E15D2F7502C34CF012814697A38DD3F9C66BE0
:205A20008F5FE703929C95156D7AEBBF5259DA95BE832DD47421D358E0692949C9C8448EEB
:205A4000C2896A758E7978F4583E6B99B971DD27E14FB6BE88AD17F020AC66C9CE3AB47DCD
:205A6000DF4A18631A3182E551336097537F45626477E0B16BAE84BB81A01CFE082B94F91D
:205A80004868587045FD198FDE6C87947BF8B75273D323AB4B02E2721F8F57E355AB2A6696
:205AA000EB2807B2B5C2032FC57B9A863708A5D32887F230BFA5B223036ABA0216825CED46
:205AC000CF1C2B8A79B492A707F2F0F369E2A14EDAF4CD6505BED50634621FD1A6FE8AC494
:205AE0002E539D34F355A0A28AE13205F6EB75A483EC390B60EFAA40719F065E6E1051BD42
:205B0000218AF93EDD063D963E05AEDDE6BD464D548DB591C45D057106D46F045015FF601A
:205B200098FB2419BDE997D64043CC89D99E7767E842BDB0898B8807195B38E7C8EEDB797E
:205B40007C0A47A1420FE97C841EC9F800000000808683092BED48321170AC1E5A724E6CC9
:205B60000EFFFBFD8538560FAED51E3D2D3927360FD9640A5CA621685B54D19B362E3A249F
:205B80000A67B10C57E70F93EE96D2B49B919E1BC0C54F80DC20A261774B695A121A161CD2
:205BA00093BA0AE2A02AE5C022E0433C1B171D12090D0B0E8BC7ADF2B6A8B92D1EA9C81454
:205BC000F119855775074CAF99DDBBEE7F60FDA301269FF772F5BC5C663BC544FB7E345BDC
:205BE0004329768B23C6DCCBEDFC68B6E4F163B831DCCAD76385104297224013C611208442
:205C00004A247D85BB3DF8D2F93211AE29A16DC79E2F4B1DB230F3DC8652EC0DC1E3D077C8
:205C2000B3166C2B70B999A99448FA11E9642247FC8CC4A8F03F1AA07D2CD8563390EF2274
:205C4000494EC78738D1C1D9CAA2FE8CD40B3698F581CFA67ADE28A5B78E26DAADBFA43F75
:205C60003A9DE42C78920D505FCC9B6A7E4662548D13C2F6D8B8E89039F75E2EC3AFF58227
:205C80005D80BE9FD0937C69D52DA96F2512B3CFAC993BC8187DA7109C636EE83BBB7BDB7A
:205CA000267809CD5918F46E9AB701EC4F9AA883956E65E6FFE67EAABCCF082115E8E6EF6A
:205CC000E79BD9BA6F36CE4A9F09D4EAB07CD629A4B2AF313F23312AA59430C6A266C03542
:205CE0004EBC377482CAA6FC90D0B0E0A7D8153304984AF1ECDAF741CD500E7F91F62F17FE
:205D00004DD68D76EFB04D43AA4D54CC9604DFE4D1B5E39E6A881B4C2C1FB8C165517F461B
:205D20005EEA049D8C355D01877473FA0B412EFB671D5AB3DBD25292105633E9D647136D3D
:205D4000D7618C9AA10C7A37F8148E59133C89EBA927EECE61C935B71CE5EDE147B13C7AB2
:205D6000D2DF599CF2733F5514CE7918C737BF73F7CDEA53FDAA5B5F3D6F14DF44DB8678C3
:205D8000AFF381CA68C43EB924342C38A3405FC21DC37216E2250CBC3C498B280D9541FFE2
:205DA000A80171390CB3DE08B4E49CD856C19064CB84617B32B670D56C5C7448B85742D0D7
:205DC0000100000002000000040000000800000010000000200000004000000080000000C4
:205DE0001B0000003600000052096AD53036A538BF40A39E81F3D7FB7CE339829B2FFF8785
:205E0000348E4344C4DEE9CB547B9432A6C2233DEE4C950B42FAC34E082EA16628D924B24B
:205E2000765BA2496D8BD12572F8F66486689816D4A45CCC5D65B6926C704850FDEDB9DABD
:205E40005E154657A78D9D8490D8AB008CBCD30AF7E45805B8B34506D02C1E8FCA3F0F02F4
:205E6000C1AFBD0301138A6B3A9111414F67DCEA97F2CFCEF0B4E67396AC7422E7AD358507
:205E8000E2F937E81C75DF6E47F11A711D29C5896FB7620EAA18BE1BFC563E4BC6D2792096
:205EA0009ADBC0FE78CD5AF41FDDA8338807C731B11210592780EC5F60517FA919B54A0DA2
:205EC0002DE57A9F93C99CEFA0E03B4DAE2AF5B0C8EBBB3C83539961172B047EBA77D626C0
:205EE000E169146355210C7D626F6F746C6F616465722062616420636865636B73756D0DF0
:205F00000A000000626F6F746C6F6164657220636865636B73756D204F4B0D0A0000000008
:205F2000001BB70000000000800000000000000000FFFFFF00F9FFFF00FFFFFF00FBFFFF25
:205F400000FFFFFFB8010000C0010000C80100006003000068030000D0010000A4130000AB
:205F6000BC130000AC100000B4100000D8010000E001000098030400A003040030000000A2
:205F800038000000F20000006908000010110000181100007812000090120000E801000007
:205FA000F0010000F8010000010100000901000021010000410100004901000051010000EB
:205FC0007101000079010000C4310000CC310000F43100000000000080000000000000003E
:205FE0000000000000FEFFFF0000000000FEFFFF000000000000000080000C40088008400D
:2060000008800840080003400800034008C00A4008C00A400440034000C0084000C0004067
:2060200000C0004000000140000001400080094000800940184000401C4000401880004040
:206040001C800040180009401C00094008800A400C800A40000000000000000000C00940ED
:2060600000C0094000400A4000400A40184009401C400940000200000000000002010000B8
:206080000000000002020202020202020000000000000202000201010101010100000000E4
:2060A000000000000000000000000404000000000000000030313233343536373839616208
:2060C0006364656600FFFFFF00B532238BB006900791059305A8044B01A998479DF8040008
:2060E0000BB05DF804FB00BFF11FFF1F0A4B30B51B680A4D8BB0A5FB035333249B090690CE
:206100000791099305A808920594054B01A998479DF804000BB030BDB8BB0010D34D62103C
:20612000F11FFF1F0A4B10B51B680A4C8AB0A4FB034334229B0906900791089305A8059218
:20614000054B01A998479DF804000AB010BD00BFB8BB0010D34D6210F11FFF1F2DE9F04FEF
:20616000ADF51D7D13A80122A84900F009FB002840F07981169B1A0740F07A81C3F30B020E
:206180004FEA1338002A00F0B1814FF40042FF219F4800F015FB0DF1180A022000F0E8FA8F
:2061A000504610229B4908F1010800F0C1FA9A4E9A4DB34600273C03214613A800F0F0FA5C
:2061C000002840F0508105AB4FF48052944913A800F0C6FA002840F0468108F1FF33BB4242
:2061E00000F05581059AB2F5805F40F03C81DFF82092CDF800A04C4421464FF4E0438848AC
:2062000000F09EFA04F5805254F8043B9442AB60FAD101374745CED182497F4B11F8014BA7
:20622000184654B15A699506FCD504605A699406FCD511F8014B002CF4D14FF480524FF49C
:20624000E041794800F074FA72B632230727774E0E930EA80AA9764D0F941097A8473368ED
:20626000744A0F94A2FB032334229B09119310970E920AA90EA8A847674B5A69664C9206FE
:20628000FBD56D4A322300252E212160684FC9F8FC220E930AA90EA80F951095B8473368AA
:2062A000644A3321A2FB03234FF480529B0912930E910F95CDF8409011920AA90EA8B847D8
:2062C00023465A69544C9706FBD507232E22322122600EA80E910F931093554A0AA9904773
:2062E00023465A694C4C9506FBD52E232360514A33684D48A2FB03239B0933214FF4E042B0
:2063000012934FF4805310900E9111930F92484B0AA90EA8984763693F4A9806FBD5474B0E
:206320002E20106003F58051002243F8042F8B42FBD1394A5169384B8906FBD52E221A60C4
:20634000169BC3F30B021B0B02B101335F1E3AD0314CDFF8E080A3464FF0000A4FF4805537
:206360004FF6FE739D4288BFA5F580334FF0320288BFDB0B0E922E4A94BF2B0B10330392DB
:206380000F9310930AA90EA89047336809EB0500A8FB03239B09332112934FF480530F95C4
:2063A0000E91109011930AA90EA8039A90470AF1010A05F5805563699B06FCD52A23574521
:2063C000CBF80030CCD11E4B4FF0FF3103F5004243F8041F9A42FBD11A4B1B4A0E491A607A
:2063E0004A690D4B9006FBD52E221A60BFF34F8F1648174AC16801F4E0610A43C260BFF393
:206400004F8F5969044A8906FBD523E0484A00002C270010B04C000000C000400000092012
:206420002C170010684B00002C070010B8BB0010F11FFF1FD34D6210214365872807001041
:206440002827001000D0001081EC9C4A00ED00E00400FA052E231360FEE713A800F078F915
:20646000384800F0A5F900200DF51D7DBDE8F08F354B36481C4610F8011B0029F3D05A69FB
:206480009706FCD521605A699606FCD5F3E7DFF8C8904FF4E0434C44059ACDF800A0214673
:2064A0002B4800F04DF9059B103B9B0818BF04EB830304D054F8042B9C42AA60FAD1169BA6
:2064C000AA689B08043B59F823309A4225D1214911F8012B002A3FF49CAE73699806FCD5C1
:2064E000CBF8002073699B06FCD5F1E74FF40042FF21194800F064F90DF1180A022000F00E
:2065000037F950461022154900F012F9B8F1000F7FF44DAEDFF840907EE64FF40042FF2154
:206520000D4800F04DF9084B0D4A184612F8011B002992D05C69A506FCD5016059698C0621
:20654000FCD5F3E7484A000000C00040384B00002C170010484B00002C270010B04C000036
:20656000584B0000F0B587B002AC4FF40042FF215D4800F025F9204610225C4900F0D8F899
:2065800059494FF4E0430D461A460094584800F0D7F8022000F0ECF82B46564C564853F85B
:2065A000042B5549A3428260F9D18A681B689A420BD04FF40042FF214B4800F001F94F4898
:2065C00000F0E6F8002007B0F0BD4D4800F0E0F84C4800F0DDF84FF480524FF4E0414A48A8
:2065E00000F0A6F872B607210020FFF76DFD07210020FFF797FD454B5A69444C9106FBD521
:20660000434B2E22002122600846C5F8FC32FFF75BFD4FF4805234490020FFF767FD2346FD
:206620005A693A4C9206FBD52E23072123600846FFF74AFD23465A69344C9706FBD52E23B8
:2066400023604FF4805230494FF4E040FFF74EFD63692E4A9E06FBD52E4B2E20106003F59E
:206660008051002243F8042F8B42FBD1274A5169264B8806FBD51C461F462E221A604FF452
:206680008056310B0846FFF71FFDA91930464FF48052FFF72BFD06F5805663699906FCD510
:2066A0002A23B6F5E04F3B60EBD11B4B4FF0FF3103F5004243F8041F9342FBD1174B184A8A
:2066C00012491A604A69114B9206FBD52E221A60BFF34F8F1349144BCA6802F4E062134399
:2066E000CB60BFF34F8FFEE72C270010B04C0000000000801C97001000000920E85E0000E9
:20670000045F0000684B00002C07001000C0004021436587280700102827001000D0001052
:2067200081EC9C4A00ED00E00400FA05FFFFFFFF01B40248844601BC604700BF9548000071
:2067400001B40248844601BC604700BF111A000001B40248844601BC604700BF1115000010
:2067600001B40248844601BC604700BFF912000001B40248844601BC604700BF05320000FF
:2067800001B40248844601BC604700BF9911000001B40248844601BC604700BF0918000056
:2067A00001B40248844601BC604700BF2D15000001B40248844601BC604700BF8D1600001C
:2067C00001B40248844601BC604700BF994800000101FFFFFFFFFFFFFFFFFFFFFFFFFFFFF8
:2067E000FFFFFFFFFFFFFFFFFFFFFFFFFFFFFFFFFFFFFFFFFFFFFFFFFFFFFFFFFFFFFFFFB9
:20680000FFFFFFFFFFFFFFFFFFFFFFFFFFFFFFFFFFFFFFFFFFFFFFFFFFFFFFFFFFFFFFFF98
:20682000FFFFFFFFFFFFFFFFFFFFFFFFFFFFFFFFFFFFFFFFFFFFFFFFFFFFFFFFFFFFFFFF78
:20684000FFFFFFFFFFFFFFFFFFFFFFFFFFFFFFFFFFFFFFFFFFFFFFFFFFFFFFFFFFFFFFFF58
:206FE000FFFFFFFFFFFFFFFFFFFFFFFFFFFFFFFFEFB0AF34FFFFFFFFFFFFFFFFFFFFFFFF2B
:20700000FFFFFFFFFFFFFFFFFFFFFFFFFFFFFFFFFFFFFFFFFFFFFFFFFFFFFFFFFFFFFFFF90
:20702000FFFFFFFFFFFFFFFFFFFFFFFFFFFFFFFFFFFFFFFFFFFFFFFFFFFFFFFFFFFFFFFF70
:20704000FFFFFFFFFFFFFFFFFFFFFFFFFFFFFFFFFFFFFFFFFFFFFFFFFFFFFFFFFFFFFFFF50
:20706000FFFFFFFFFFFFFFFFFFFFFFFFFFFFFFFFFFFFFFFFFFFFFFFFFFFFFFFFFFFFFFFF30
:2080000080FF0010158100009181000099810000A1810000A9810000B18100000000000091
